{
  "contractName": "OrderRegistry",
  "abi": [
    {
      "anonymous": false,
      "inputs": [
        {
          "indexed": false,
          "internalType": "string",
          "name": "orderno",
          "type": "string"
        }
      ],
      "name": "MfgTrigger",
      "type": "event"
    },
    {
      "anonymous": false,
      "inputs": [
        {
          "indexed": false,
          "internalType": "string",
          "name": "orderno",
          "type": "string"
        }
      ],
      "name": "OrderGenerated",
      "type": "event"
    },
    {
      "anonymous": false,
      "inputs": [
        {
          "indexed": false,
          "internalType": "string",
          "name": "orderno",
          "type": "string"
        },
        {
          "indexed": false,
          "internalType": "uint256",
          "name": "category",
          "type": "uint256"
        },
        {
          "indexed": false,
          "internalType": "string",
          "name": "report",
          "type": "string"
        }
      ],
      "name": "ReportSubmit",
      "type": "event"
    },
    {
      "anonymous": false,
      "inputs": [
        {
          "indexed": false,
          "internalType": "string",
          "name": "orderno",
          "type": "string"
        }
      ],
      "name": "SupplyTrigger",
      "type": "event"
    },
    {
      "constant": false,
      "inputs": [
        {
          "internalType": "string",
          "name": "orderno",
          "type": "string"
        },
        {
          "internalType": "string",
          "name": "product",
          "type": "string"
        },
        {
          "internalType": "string",
          "name": "temp",
          "type": "string"
        },
        {
          "internalType": "string",
          "name": "value",
          "type": "string"
        },
        {
          "internalType": "string",
          "name": "quantity",
          "type": "string"
        },
        {
          "internalType": "string",
          "name": "delivery",
          "type": "string"
        }
      ],
      "name": "createOrder",
      "outputs": [],
      "payable": false,
      "stateMutability": "nonpayable",
      "type": "function"
    },
    {
      "constant": false,
      "inputs": [
        {
          "internalType": "string",
          "name": "orderno",
          "type": "string"
        },
        {
          "internalType": "string",
          "name": "name",
          "type": "string"
        },
        {
          "internalType": "string",
          "name": "delivery",
          "type": "string"
        },
        {
          "internalType": "string",
          "name": "value",
          "type": "string"
        },
        {
          "internalType": "string",
          "name": "quantity",
          "type": "string"
        }
      ],
      "name": "setDistValues",
      "outputs": [],
      "payable": false,
      "stateMutability": "nonpayable",
      "type": "function"
    },
    {
      "constant": false,
      "inputs": [
        {
          "internalType": "string",
          "name": "orderno",
          "type": "string"
        },
        {
          "internalType": "string",
          "name": "name",
          "type": "string"
        },
        {
          "internalType": "string",
          "name": "material",
          "type": "string"
        },
        {
          "internalType": "string",
          "name": "delivery",
          "type": "string"
        },
        {
          "internalType": "string",
          "name": "value",
          "type": "string"
        },
        {
          "internalType": "string",
          "name": "quantity",
          "type": "string"
        }
      ],
      "name": "setMfgValues",
      "outputs": [],
      "payable": false,
      "stateMutability": "nonpayable",
      "type": "function"
    },
    {
      "constant": false,
      "inputs": [
        {
          "internalType": "string",
          "name": "orderno",
          "type": "string"
        },
        {
          "internalType": "uint256",
          "name": "category",
          "type": "uint256"
        },
        {
          "internalType": "string",
          "name": "report",
          "type": "string"
        }
      ],
      "name": "setReport",
      "outputs": [],
      "payable": false,
      "stateMutability": "nonpayable",
      "type": "function"
    },
    {
      "constant": true,
      "inputs": [
        {
          "internalType": "string",
          "name": "orderno",
          "type": "string"
        },
        {
          "internalType": "uint256",
          "name": "category",
          "type": "uint256"
        }
      ],
      "name": "getReport",
      "outputs": [
        {
          "internalType": "string",
          "name": "",
          "type": "string"
        }
      ],
      "payable": false,
      "stateMutability": "view",
      "type": "function"
    },
    {
      "constant": true,
      "inputs": [
        {
          "internalType": "string",
          "name": "orderno",
          "type": "string"
        }
      ],
      "name": "fetchInitialDetails",
      "outputs": [
        {
          "internalType": "string",
          "name": "",
          "type": "string"
        },
        {
          "internalType": "string",
          "name": "",
          "type": "string"
        },
        {
          "internalType": "string",
          "name": "",
          "type": "string"
        },
        {
          "internalType": "string",
          "name": "",
          "type": "string"
        },
        {
          "internalType": "string",
          "name": "",
          "type": "string"
        }
      ],
      "payable": false,
      "stateMutability": "view",
      "type": "function"
    },
    {
      "constant": true,
      "inputs": [
        {
          "internalType": "string",
          "name": "orderno",
          "type": "string"
        }
      ],
      "name": "getDistValues",
      "outputs": [
        {
          "internalType": "string",
          "name": "",
          "type": "string"
        },
        {
          "internalType": "string",
          "name": "",
          "type": "string"
        },
        {
          "internalType": "string",
          "name": "",
          "type": "string"
        },
        {
          "internalType": "string",
          "name": "",
          "type": "string"
        }
      ],
      "payable": false,
      "stateMutability": "view",
      "type": "function"
    },
    {
      "constant": true,
      "inputs": [
        {
          "internalType": "string",
          "name": "orderno",
          "type": "string"
        }
      ],
      "name": "getMfgDetails",
      "outputs": [
        {
          "internalType": "string",
          "name": "",
          "type": "string"
        },
        {
          "internalType": "string",
          "name": "",
          "type": "string"
        },
        {
          "internalType": "string",
          "name": "",
          "type": "string"
        },
        {
          "internalType": "string",
          "name": "",
          "type": "string"
        },
        {
          "internalType": "string",
          "name": "",
          "type": "string"
        }
      ],
      "payable": false,
      "stateMutability": "view",
      "type": "function"
    }
  ],
  "bytecode": "0x608060405234801561001057600080fd5b5061349f806100206000396000f3fe608060405234801561001057600080fd5b50600436106100885760003560e01c80637972d0791161005b5780637972d07914610883578063826f8a0014610c3157806387d517c914610fdf578063baaa3eef146112c357610088565b806302f20b9c1461008d578063365ede48146101cb57806363727449146103275780636c4636351461060b575b600080fd5b610150600480360360408110156100a357600080fd5b81019080803590602001906401000000008111156100c057600080fd5b8201836020820111156100d257600080fd5b803590602001918460018302840111640100000000831117156100f457600080fd5b91908080601f016020809104026020016040519081016040528093929190818152602001838380828437600081840152601f19601f820116905080830192505050505050509192919290803590602001909291905050506115da565b6040518080602001828103825283818151815260200191508051906020019080838360005b83811015610190578082015181840152602081019050610175565b50505050905090810190601f1680156101bd5780820380516001836020036101000a031916815260200191505b509250505060405180910390f35b610325600480360360608110156101e157600080fd5b81019080803590602001906401000000008111156101fe57600080fd5b82018360208201111561021057600080fd5b8035906020019184600183028401116401000000008311171561023257600080fd5b91908080601f016020809104026020016040519081016040528093929190818152602001838380828437600081840152601f19601f820116905080830192505050505050509192919290803590602001909291908035906020019064010000000081111561029f57600080fd5b8201836020820111156102b157600080fd5b803590602001918460018302840111640100000000831117156102d357600080fd5b91908080601f016020809104026020016040519081016040528093929190818152602001838380828437600081840152601f19601f82011690508083019250505050505050919291929050505061195a565b005b6103e06004803603602081101561033d57600080fd5b810190808035906020019064010000000081111561035a57600080fd5b82018360208201111561036c57600080fd5b8035906020019184600183028401116401000000008311171561038e57600080fd5b91908080601f016020809104026020016040519081016040528093929190818152602001838380828437600081840152601f19601f820116905080830192505050505050509192919290505050611c11565b60405180806020018060200180602001806020018060200186810386528b818151815260200191508051906020019080838360005b83811015610430578082015181840152602081019050610415565b50505050905090810190601f16801561045d5780820380516001836020036101000a031916815260200191505b5086810385528a818151815260200191508051906020019080838360005b8381101561049657808201518184015260208101905061047b565b50505050905090810190601f1680156104c35780820380516001836020036101000a031916815260200191505b50868103845289818151815260200191508051906020019080838360005b838110156104fc5780820151818401526020810190506104e1565b50505050905090810190601f1680156105295780820380516001836020036101000a031916815260200191505b50868103835288818151815260200191508051906020019080838360005b83811015610562578082015181840152602081019050610547565b50505050905090810190601f16801561058f5780820380516001836020036101000a031916815260200191505b50868103825287818151815260200191508051906020019080838360005b838110156105c85780820151818401526020810190506105ad565b50505050905090810190601f1680156105f55780820380516001836020036101000a031916815260200191505b509a505050505050505050505060405180910390f35b6106c46004803603602081101561062157600080fd5b810190808035906020019064010000000081111561063e57600080fd5b82018360208201111561065057600080fd5b8035906020019184600183028401116401000000008311171561067257600080fd5b91908080601f016020809104026020016040519081016040528093929190818152602001838380828437600081840152601f19601f820116905080830192505050505050509192919290505050612154565b6040518080602001806020018060200180602001858103855289818151815260200191508051906020019080838360005b838110156107105780820151818401526020810190506106f5565b50505050905090810190601f16801561073d5780820380516001836020036101000a031916815260200191505b50858103845288818151815260200191508051906020019080838360005b8381101561077657808201518184015260208101905061075b565b50505050905090810190601f1680156107a35780820380516001836020036101000a031916815260200191505b50858103835287818151815260200191508051906020019080838360005b838110156107dc5780820151818401526020810190506107c1565b50505050905090810190601f1680156108095780820380516001836020036101000a031916815260200191505b50858103825286818151815260200191508051906020019080838360005b83811015610842578082015181840152602081019050610827565b50505050905090810190601f16801561086f5780820380516001836020036101000a031916815260200191505b509850505050505050505060405180910390f35b610c2f600480360360c081101561089957600080fd5b81019080803590602001906401000000008111156108b657600080fd5b8201836020820111156108c857600080fd5b803590602001918460018302840111640100000000831117156108ea57600080fd5b91908080601f016020809104026020016040519081016040528093929190818152602001838380828437600081840152601f19601f8201169050808301925050505050505091929192908035906020019064010000000081111561094d57600080fd5b82018360208201111561095f57600080fd5b8035906020019184600183028401116401000000008311171561098157600080fd5b91908080601f016020809104026020016040519081016040528093929190818152602001838380828437600081840152601f19601f820116905080830192505050505050509192919290803590602001906401000000008111156109e457600080fd5b8201836020820111156109f657600080fd5b80359060200191846001830284011164010000000083111715610a1857600080fd5b91908080601f016020809104026020016040519081016040528093929190818152602001838380828437600081840152601f19601f82011690508083019250505050505050919291929080359060200190640100000000811115610a7b57600080fd5b820183602082011115610a8d57600080fd5b80359060200191846001830284011164010000000083111715610aaf57600080fd5b91908080601f016020809104026020016040519081016040528093929190818152602001838380828437600081840152601f19601f82011690508083019250505050505050919291929080359060200190640100000000811115610b1257600080fd5b820183602082011115610b2457600080fd5b80359060200191846001830284011164010000000083111715610b4657600080fd5b91908080601f016020809104026020016040519081016040528093929190818152602001838380828437600081840152601f19601f82011690508083019250505050505050919291929080359060200190640100000000811115610ba957600080fd5b820183602082011115610bbb57600080fd5b80359060200191846001830284011164010000000083111715610bdd57600080fd5b91908080601f016020809104026020016040519081016040528093929190818152602001838380828437600081840152601f19601f820116905080830192505050505050509192919290505050612589565b005b610fdd600480360360c0811015610c4757600080fd5b8101908080359060200190640100000000811115610c6457600080fd5b820183602082011115610c7657600080fd5b80359060200191846001830284011164010000000083111715610c9857600080fd5b91908080601f016020809104026020016040519081016040528093929190818152602001838380828437600081840152601f19601f82011690508083019250505050505050919291929080359060200190640100000000811115610cfb57600080fd5b820183602082011115610d0d57600080fd5b80359060200191846001830284011164010000000083111715610d2f57600080fd5b91908080601f016020809104026020016040519081016040528093929190818152602001838380828437600081840152601f19601f82011690508083019250505050505050919291929080359060200190640100000000811115610d9257600080fd5b820183602082011115610da457600080fd5b80359060200191846001830284011164010000000083111715610dc657600080fd5b91908080601f016020809104026020016040519081016040528093929190818152602001838380828437600081840152601f19601f82011690508083019250505050505050919291929080359060200190640100000000811115610e2957600080fd5b820183602082011115610e3b57600080fd5b80359060200191846001830284011164010000000083111715610e5d57600080fd5b91908080601f016020809104026020016040519081016040528093929190818152602001838380828437600081840152601f19601f82011690508083019250505050505050919291929080359060200190640100000000811115610ec057600080fd5b820183602082011115610ed257600080fd5b80359060200191846001830284011164010000000083111715610ef457600080fd5b91908080601f016020809104026020016040519081016040528093929190818152602001838380828437600081840152601f19601f82011690508083019250505050505050919291929080359060200190640100000000811115610f5757600080fd5b820183602082011115610f6957600080fd5b80359060200191846001830284011164010000000083111715610f8b57600080fd5b91908080601f016020809104026020016040519081016040528093929190818152602001838380828437600081840152601f19601f8201169050808301925050505050505091929192905050506128b2565b005b61109860048036036020811015610ff557600080fd5b810190808035906020019064010000000081111561101257600080fd5b82018360208201111561102457600080fd5b8035906020019184600183028401116401000000008311171561104657600080fd5b91908080601f016020809104026020016040519081016040528093929190818152602001838380828437600081840152601f19601f820116905080830192505050505050509192919290505050612bdb565b60405180806020018060200180602001806020018060200186810386528b818151815260200191508051906020019080838360005b838110156110e85780820151818401526020810190506110cd565b50505050905090810190601f1680156111155780820380516001836020036101000a031916815260200191505b5086810385528a818151815260200191508051906020019080838360005b8381101561114e578082015181840152602081019050611133565b50505050905090810190601f16801561117b5780820380516001836020036101000a031916815260200191505b50868103845289818151815260200191508051906020019080838360005b838110156111b4578082015181840152602081019050611199565b50505050905090810190601f1680156111e15780820380516001836020036101000a031916815260200191505b50868103835288818151815260200191508051906020019080838360005b8381101561121a5780820151818401526020810190506111ff565b50505050905090810190601f1680156112475780820380516001836020036101000a031916815260200191505b50868103825287818151815260200191508051906020019080838360005b83811015611280578082015181840152602081019050611265565b50505050905090810190601f1680156112ad5780820380516001836020036101000a031916815260200191505b509a505050505050505050505060405180910390f35b6115d8600480360360a08110156112d957600080fd5b81019080803590602001906401000000008111156112f657600080fd5b82018360208201111561130857600080fd5b8035906020019184600183028401116401000000008311171561132a57600080fd5b91908080601f016020809104026020016040519081016040528093929190818152602001838380828437600081840152601f19601f8201169050808301925050505050505091929192908035906020019064010000000081111561138d57600080fd5b82018360208201111561139f57600080fd5b803590602001918460018302840111640100000000831117156113c157600080fd5b91908080601f016020809104026020016040519081016040528093929190818152602001838380828437600081840152601f19601f8201169050808301925050505050505091929192908035906020019064010000000081111561142457600080fd5b82018360208201111561143657600080fd5b8035906020019184600183028401116401000000008311171561145857600080fd5b91908080601f016020809104026020016040519081016040528093929190818152602001838380828437600081840152601f19601f820116905080830192505050505050509192919290803590602001906401000000008111156114bb57600080fd5b8201836020820111156114cd57600080fd5b803590602001918460018302840111640100000000831117156114ef57600080fd5b91908080601f016020809104026020016040519081016040528093929190818152602001838380828437600081840152601f19601f8201169050808301925050505050505091929192908035906020019064010000000081111561155257600080fd5b82018360208201111561156457600080fd5b8035906020019184600183028401116401000000008311171561158657600080fd5b91908080601f016020809104026020016040519081016040528093929190818152602001838380828437600081840152601f19601f82011690508083019250505050505050919291929050505061311e565b005b606060018214156116f1576000836040518082805190602001908083835b6020831061161b57805182526020820191506020810190506020830392506115f8565b6001836020036101000a03801982511681845116808217855250505050505090500191505090815260200160405180910390206005018054600181600116156101000203166002900480601f0160208091040260200160405190810160405280929190818152602001828054600181600116156101000203166002900480156116e55780601f106116ba576101008083540402835291602001916116e5565b820191906000526020600020905b8154815290600101906020018083116116c857829003601f168201915b50505050509050611954565b6002821415611806576000836040518082805190602001908083835b60208310611730578051825260208201915060208101905060208303925061170d565b6001836020036101000a03801982511681845116808217855250505050505090500191505090815260200160405180910390206004018054600181600116156101000203166002900480601f0160208091040260200160405190810160405280929190818152602001828054600181600116156101000203166002900480156117fa5780601f106117cf576101008083540402835291602001916117fa565b820191906000526020600020905b8154815290600101906020018083116117dd57829003601f168201915b50505050509050611954565b600382141561191b576000836040518082805190602001908083835b602083106118455780518252602082019150602081019050602083039250611822565b6001836020036101000a03801982511681845116808217855250505050505090500191505090815260200160405180910390206003018054600181600116156101000203166002900480601f01602080910402602001604051908101604052809291908181526020018280546001816001161561010002031660029004801561190f5780601f106118e45761010080835404028352916020019161190f565b820191906000526020600020905b8154815290600101906020018083116118f257829003601f168201915b50505050509050611954565b6040518060400160405280600981526020017f756e646566696e6564000000000000000000000000000000000000000000000081525090505b92915050565b60018214156119e557806000846040518082805190602001908083835b6020831061199a5780518252602082019150602081019050602083039250611977565b6001836020036101000a038019825116818451168082178552505050505050905001915050908152602001604051809103902060050190805190602001906119e39291906133c5565b505b6002821415611a7057806000846040518082805190602001908083835b60208310611a255780518252602082019150602081019050602083039250611a02565b6001836020036101000a03801982511681845116808217855250505050505090500191505090815260200160405180910390206004019080519060200190611a6e9291906133c5565b505b6003821415611afb57806000846040518082805190602001908083835b60208310611ab05780518252602082019150602081019050602083039250611a8d565b6001836020036101000a03801982511681845116808217855250505050505090500191505090815260200160405180910390206003019080519060200190611af99291906133c5565b505b7fd9b0f0df633a148a4fe7319855c86248356bd58d003cabe1fc554c4a32eee836838383604051808060200184815260200180602001838103835286818151815260200191508051906020019080838360005b83811015611b69578082015181840152602081019050611b4e565b50505050905090810190601f168015611b965780820380516001836020036101000a031916815260200191505b50838103825284818151815260200191508051906020019080838360005b83811015611bcf578082015181840152602081019050611bb4565b50505050905090810190601f168015611bfc5780820380516001836020036101000a031916815260200191505b509550505050505060405180910390a1505050565b60608060608060606000866040518082805190602001908083835b60208310611c4f5780518252602082019150602081019050602083039250611c2c565b6001836020036101000a03801982511681845116808217855250505050505090500191505090815260200160405180910390206001016000876040518082805190602001908083835b60208310611cbb5780518252602082019150602081019050602083039250611c98565b6001836020036101000a0380198251168184511680821785525050505050509050019150509081526020016040518091039020600c016000886040518082805190602001908083835b60208310611d275780518252602082019150602081019050602083039250611d04565b6001836020036101000a03801982511681845116808217855250505050505090500191505090815260200160405180910390206009016000896040518082805190602001908083835b60208310611d935780518252602082019150602081019050602083039250611d70565b6001836020036101000a038019825116818451168082178552505050505050905001915050908152602001604051809103902060060160008a6040518082805190602001908083835b60208310611dff5780518252602082019150602081019050602083039250611ddc565b6001836020036101000a0380198251168184511680821785525050505050509050019150509081526020016040518091039020601101848054600181600116156101000203166002900480601f016020809104026020016040519081016040528092919081815260200182805460018160011615610100020316600290048015611eca5780601f10611e9f57610100808354040283529160200191611eca565b820191906000526020600020905b815481529060010190602001808311611ead57829003601f168201915b50505050509450838054600181600116156101000203166002900480601f016020809104026020016040519081016040528092919081815260200182805460018160011615610100020316600290048015611f665780601f10611f3b57610100808354040283529160200191611f66565b820191906000526020600020905b815481529060010190602001808311611f4957829003601f168201915b50505050509350828054600181600116156101000203166002900480601f0160208091040260200160405190810160405280929190818152602001828054600181600116156101000203166002900480156120025780601f10611fd757610100808354040283529160200191612002565b820191906000526020600020905b815481529060010190602001808311611fe557829003601f168201915b50505050509250818054600181600116156101000203166002900480601f01602080910402602001604051908101604052809291908181526020018280546001816001161561010002031660029004801561209e5780601f106120735761010080835404028352916020019161209e565b820191906000526020600020905b81548152906001019060200180831161208157829003601f168201915b50505050509150808054600181600116156101000203166002900480601f01602080910402602001604051908101604052809291908181526020018280546001816001161561010002031660029004801561213a5780601f1061210f5761010080835404028352916020019161213a565b820191906000526020600020905b81548152906001019060200180831161211d57829003601f168201915b505050505090509450945094509450945091939590929450565b6060806060806000856040518082805190602001908083835b60208310612190578051825260208201915060208101905060208303925061216d565b6001836020036101000a03801982511681845116808217855250505050505090500191505090815260200160405180910390206002016000866040518082805190602001908083835b602083106121fc57805182526020820191506020810190506020830392506121d9565b6001836020036101000a0380198251168184511680821785525050505050509050019150509081526020016040518091039020600d016000876040518082805190602001908083835b602083106122685780518252602082019150602081019050602083039250612245565b6001836020036101000a0380198251168184511680821785525050505050509050019150509081526020016040518091039020600a016000886040518082805190602001908083835b602083106122d457805182526020820191506020810190506020830392506122b1565b6001836020036101000a0380198251168184511680821785525050505050509050019150509081526020016040518091039020600701838054600181600116156101000203166002900480601f01602080910402602001604051908101604052809291908181526020018280546001816001161561010002031660029004801561239f5780601f106123745761010080835404028352916020019161239f565b820191906000526020600020905b81548152906001019060200180831161238257829003601f168201915b50505050509350828054600181600116156101000203166002900480601f01602080910402602001604051908101604052809291908181526020018280546001816001161561010002031660029004801561243b5780601f106124105761010080835404028352916020019161243b565b820191906000526020600020905b81548152906001019060200180831161241e57829003601f168201915b50505050509250818054600181600116156101000203166002900480601f0160208091040260200160405190810160405280929190818152602001828054600181600116156101000203166002900480156124d75780601f106124ac576101008083540402835291602001916124d7565b820191906000526020600020905b8154815290600101906020018083116124ba57829003601f168201915b50505050509150808054600181600116156101000203166002900480601f0160208091040260200160405190810160405280929190818152602001828054600181600116156101000203166002900480156125735780601f1061254857610100808354040283529160200191612573565b820191906000526020600020905b81548152906001019060200180831161255657829003601f168201915b5050505050905093509350935093509193509193565b846000876040518082805190602001908083835b602083106125c0578051825260208201915060208101905060208303925061259d565b6001836020036101000a038019825116818451168082178552505050505050905001915050908152602001604051809103902060010190805190602001906126099291906133c5565b50826000876040518082805190602001908083835b60208310612641578051825260208201915060208101905060208303925061261e565b6001836020036101000a0380198251168184511680821785525050505050509050019150509081526020016040518091039020600c01908051906020019061268a9291906133c5565b50816000876040518082805190602001908083835b602083106126c2578051825260208201915060208101905060208303925061269f565b6001836020036101000a0380198251168184511680821785525050505050509050019150509081526020016040518091039020600901908051906020019061270b9291906133c5565b50806000876040518082805190602001908083835b602083106127435780518252602082019150602081019050602083039250612720565b6001836020036101000a0380198251168184511680821785525050505050509050019150509081526020016040518091039020600601908051906020019061278c9291906133c5565b50836000876040518082805190602001908083835b602083106127c457805182526020820191506020810190506020830392506127a1565b6001836020036101000a0380198251168184511680821785525050505050509050019150509081526020016040518091039020601101908051906020019061280d9291906133c5565b507fa5e5df1b20cfee00f20330f3b591592f6c22c05c855ac7245839cef3545f7204866040518080602001828103825283818151815260200191508051906020019080838360005b83811015612870578082015181840152602081019050612855565b50505050905090810190601f16801561289d5780820380516001836020036101000a031916815260200191505b509250505060405180910390a1505050505050565b846000876040518082805190602001908083835b602083106128e957805182526020820191506020810190506020830392506128c6565b6001836020036101000a038019825116818451168082178552505050505050905001915050908152602001604051809103902060100190805190602001906129329291906133c5565b50836000876040518082805190602001908083835b6020831061296a5780518252602082019150602081019050602083039250612947565b6001836020036101000a0380198251168184511680821785525050505050509050019150509081526020016040518091039020600f0190805190602001906129b39291906133c5565b50826000876040518082805190602001908083835b602083106129eb57805182526020820191506020810190506020830392506129c8565b6001836020036101000a0380198251168184511680821785525050505050509050019150509081526020016040518091039020600b019080519060200190612a349291906133c5565b50816000876040518082805190602001908083835b60208310612a6c5780518252602082019150602081019050602083039250612a49565b6001836020036101000a03801982511681845116808217855250505050505090500191505090815260200160405180910390206008019080519060200190612ab59291906133c5565b50806000876040518082805190602001908083835b60208310612aed5780518252602082019150602081019050602083039250612aca565b6001836020036101000a0380198251168184511680821785525050505050509050019150509081526020016040518091039020600e019080519060200190612b369291906133c5565b507f49a8e1507a6f693a113e03a6b7d2ca032ebdf2908f1fcbc1b021ed7845cadf8a866040518080602001828103825283818151815260200191508051906020019080838360005b83811015612b99578082015181840152602081019050612b7e565b50505050905090810190601f168015612bc65780820380516001836020036101000a031916815260200191505b509250505060405180910390a1505050505050565b60608060608060606000866040518082805190602001908083835b60208310612c195780518252602082019150602081019050602083039250612bf6565b6001836020036101000a03801982511681845116808217855250505050505090500191505090815260200160405180910390206010016000876040518082805190602001908083835b60208310612c855780518252602082019150602081019050602083039250612c62565b6001836020036101000a0380198251168184511680821785525050505050509050019150509081526020016040518091039020600f016000886040518082805190602001908083835b60208310612cf15780518252602082019150602081019050602083039250612cce565b6001836020036101000a0380198251168184511680821785525050505050509050019150509081526020016040518091039020600b016000896040518082805190602001908083835b60208310612d5d5780518252602082019150602081019050602083039250612d3a565b6001836020036101000a038019825116818451168082178552505050505050905001915050908152602001604051809103902060080160008a6040518082805190602001908083835b60208310612dc95780518252602082019150602081019050602083039250612da6565b6001836020036101000a0380198251168184511680821785525050505050509050019150509081526020016040518091039020600e01848054600181600116156101000203166002900480601f016020809104026020016040519081016040528092919081815260200182805460018160011615610100020316600290048015612e945780601f10612e6957610100808354040283529160200191612e94565b820191906000526020600020905b815481529060010190602001808311612e7757829003601f168201915b50505050509450838054600181600116156101000203166002900480601f016020809104026020016040519081016040528092919081815260200182805460018160011615610100020316600290048015612f305780601f10612f0557610100808354040283529160200191612f30565b820191906000526020600020905b815481529060010190602001808311612f1357829003601f168201915b50505050509350828054600181600116156101000203166002900480601f016020809104026020016040519081016040528092919081815260200182805460018160011615610100020316600290048015612fcc5780601f10612fa157610100808354040283529160200191612fcc565b820191906000526020600020905b815481529060010190602001808311612faf57829003601f168201915b50505050509250818054600181600116156101000203166002900480601f0160208091040260200160405190810160405280929190818152602001828054600181600116156101000203166002900480156130685780601f1061303d57610100808354040283529160200191613068565b820191906000526020600020905b81548152906001019060200180831161304b57829003601f168201915b50505050509150808054600181600116156101000203166002900480601f0160208091040260200160405190810160405280929190818152602001828054600181600116156101000203166002900480156131045780601f106130d957610100808354040283529160200191613104565b820191906000526020600020905b8154815290600101906020018083116130e757829003601f168201915b505050505090509450945094509450945091939590929450565b836000866040518082805190602001908083835b602083106131555780518252602082019150602081019050602083039250613132565b6001836020036101000a0380198251168184511680821785525050505050509050019150509081526020016040518091039020600201908051906020019061319e9291906133c5565b50826000866040518082805190602001908083835b602083106131d657805182526020820191506020810190506020830392506131b3565b6001836020036101000a0380198251168184511680821785525050505050509050019150509081526020016040518091039020600d01908051906020019061321f9291906133c5565b50816000866040518082805190602001908083835b602083106132575780518252602082019150602081019050602083039250613234565b6001836020036101000a0380198251168184511680821785525050505050509050019150509081526020016040518091039020600a0190805190602001906132a09291906133c5565b50806000866040518082805190602001908083835b602083106132d857805182526020820191506020810190506020830392506132b5565b6001836020036101000a038019825116818451168082178552505050505050905001915050908152602001604051809103902060070190805190602001906133219291906133c5565b507f99d100a02e30d6fbe9128c70416db30063e0eb352d3961159f35ab3471a37fc3856040518080602001828103825283818151815260200191508051906020019080838360005b83811015613384578082015181840152602081019050613369565b50505050905090810190601f1680156133b15780820380516001836020036101000a031916815260200191505b509250505060405180910390a15050505050565b828054600181600116156101000203166002900490600052602060002090601f016020900481019282601f1061340657805160ff1916838001178555613434565b82800160010185558215613434579182015b82811115613433578251825591602001919060010190613418565b5b5090506134419190613445565b5090565b61346791905b8082111561346357600081600090555060010161344b565b5090565b9056fea265627a7a723158203490b23376c16891613b0c53fefbc5ee7a65b850b477b18587cc8124b6c4ecd764736f6c634300050c0032",
  "source": "pragma solidity ^0.5.8;\n\n// To register the exact order with exact user\ncontract OrderRegistry {\n  struct Order {\n    string supplier_name;\n    string mfg_name;\n    string dist_name;\n\n    string supplier_report;\n    string mfg_report;\n    string dist_report;\n\n    string supplier_quantity;\n    string mfg_quantity;\n    string dist_quantity;\n\n    string supplier_value;\n    string mfg_value;\n    string dist_value;\n\n    string supplier_date;\n    string mfg_date;\n    string dist_date;\n\n    string thresh_temp;\n    string product_name;\n    string raw_material_name;\n\n  }\n\n  mapping(string=>Order) registry;\n\n  event OrderGenerated(string orderno);\n  event MfgTrigger(string orderno);\n  event SupplyTrigger(string orderno);\n  event ReportSubmit(string orderno, uint category, string report);\n\n  // To create the order\n  function createOrder(string memory orderno, string memory product, string memory temp, string memory value, string memory quantity, string memory delivery) public {\n    registry[orderno].product_name = product;\n    registry[orderno].thresh_temp = temp;\n    registry[orderno].dist_value = value;\n    registry[orderno].dist_quantity = quantity;\n    registry[orderno].dist_date = delivery;\n    emit OrderGenerated(orderno);\n  }\n\n  function setDistValues(string memory orderno, string memory name, string memory delivery, string memory value, string memory quantity) public {\n    registry[orderno].dist_name = name;\n    registry[orderno].mfg_date = delivery;\n    registry[orderno].mfg_value = value;\n    registry[orderno].mfg_quantity = quantity;\n    emit MfgTrigger(orderno);\n  }\n\n  function setMfgValues(string memory orderno, string memory name, string memory material, string memory delivery, string memory value, string memory quantity) public {\n    registry[orderno].mfg_name = name;\n    registry[orderno].supplier_date = delivery;\n    registry[orderno].supplier_value = value;\n    registry[orderno].supplier_quantity = quantity;\n    registry[orderno].raw_material_name = material;\n    emit SupplyTrigger(orderno);\n  }\n\n  function setReport(string memory orderno,uint category, string memory report) public {\n    if( category == 1 ) {\n      registry[orderno].dist_report = report;\n    }\n    if( category == 2 ) {\n      registry[orderno].mfg_report = report;\n    }\n    if( category == 3 ) {\n      registry[orderno].supplier_report = report;\n    }\n    emit ReportSubmit(orderno, category, report);\n  }\n\n  function getReport(string memory orderno,uint category) public view returns(string memory) {\n    if(category == 1) {\n      return registry[orderno].dist_report;\n    }\n    if( category == 2 ) {\n      return registry[orderno].mfg_report;\n    }\n    if( category == 3 ) {\n      return registry[orderno].supplier_report;\n    }\n    return \"undefined\";\n  }\n\n  function fetchInitialDetails(string memory orderno) public view returns(string memory, string memory, string memory,string memory, string memory) {\n    return (registry[orderno].product_name,\n            registry[orderno].thresh_temp,\n            registry[orderno].dist_value,\n            registry[orderno].dist_quantity,\n            registry[orderno].dist_date);\n  }\n\n  function getDistValues(string memory orderno) public view returns(string memory, string memory, string memory, string memory) {\n    return (registry[orderno].dist_name , registry[orderno].mfg_date,\n            registry[orderno].mfg_value, registry[orderno].mfg_quantity);\n  }\n\n  function getMfgDetails(string memory orderno) public view returns(string memory,string memory,string memory,string memory,string memory) {\n    return (registry[orderno].mfg_name,\n    registry[orderno].supplier_date,\n    registry[orderno].supplier_value,\n    registry[orderno].supplier_quantity,\n    registry[orderno].raw_material_name);\n  }\n\n}\n",
  "sourcePath": "/Users/guozhitang/Projects/Blockchain/Livestock-Disease-Monitor-System/contracts/OrderRegistry.sol",
  "compiler": {
    "name": "solc",
    "version": "0.5.12+commit.7709ece9.Emscripten.clang"
  },
  "schemaVersion": "3.0.19",
  "updatedAt": "2019-12-14T05:56:02.268Z",
  "networkType": "ethereum",
  "devdoc": {
    "methods": {}
  },
  "userdoc": {
    "methods": {}
  }
}