{
  "contractName": "SupplyChain",
  "abi": [
    {
      "constant": false,
      "inputs": [],
      "name": "Supply_Chain",
      "outputs": [],
      "payable": false,
      "stateMutability": "nonpayable",
      "type": "function"
    },
    {
      "constant": false,
      "inputs": [
        {
          "name": "addr",
          "type": "address"
        }
      ],
      "name": "addWhiteList",
      "outputs": [],
      "payable": false,
      "stateMutability": "nonpayable",
      "type": "function"
    },
    {
      "constant": false,
      "inputs": [
        {
          "name": "ID",
          "type": "bytes32"
        },
        {
          "name": "name",
          "type": "bytes32"
        },
        {
          "name": "actor",
          "type": "uint8"
        }
      ],
      "name": "newUser",
      "outputs": [
        {
          "name": "Boolean",
          "type": "bool"
        },
        {
          "name": "String",
          "type": "string"
        }
      ],
      "payable": false,
      "stateMutability": "nonpayable",
      "type": "function"
    },
    {
      "constant": false,
      "inputs": [
        {
          "name": "livestockID",
          "type": "bytes32"
        },
        {
          "name": "livestockName",
          "type": "bytes32"
        },
        {
          "name": "timestamp",
          "type": "uint256"
        }
      ],
      "name": "newProduct",
      "outputs": [
        {
          "name": "",
          "type": "bool"
        },
        {
          "name": "",
          "type": "bytes32"
        }
      ],
      "payable": false,
      "stateMutability": "nonpayable",
      "type": "function"
    },
    {
      "constant": false,
      "inputs": [
        {
          "name": "livestockID",
          "type": "bytes32"
        },
        {
          "name": "timestamp",
          "type": "uint256"
        }
      ],
      "name": "retailerInnerTransfer",
      "outputs": [
        {
          "name": "Boolean",
          "type": "bool"
        },
        {
          "name": "String",
          "type": "string"
        }
      ],
      "payable": false,
      "stateMutability": "nonpayable",
      "type": "function"
    },
    {
      "constant": false,
      "inputs": [
        {
          "name": "livestockID",
          "type": "bytes32"
        },
        {
          "name": "timestamp",
          "type": "uint256"
        }
      ],
      "name": "fromRetailerToCustomer",
      "outputs": [
        {
          "name": "Boolean",
          "type": "bool"
        },
        {
          "name": "String",
          "type": "string"
        }
      ],
      "payable": false,
      "stateMutability": "nonpayable",
      "type": "function"
    },
    {
      "constant": false,
      "inputs": [
        {
          "name": "livestockID",
          "type": "bytes32"
        }
      ],
      "name": "getLivestockRecordsBywhiteList",
      "outputs": [
        {
          "name": "",
          "type": "bool"
        },
        {
          "name": "",
          "type": "string"
        },
        {
          "name": "producerName",
          "type": "bytes32"
        },
        {
          "name": "produceTime",
          "type": "uint256"
        },
        {
          "name": "retailerNames",
          "type": "bytes32[]"
        },
        {
          "name": "retailerTimes",
          "type": "uint256[]"
        },
        {
          "name": "customerName",
          "type": "bytes32"
        },
        {
          "name": "sellTime",
          "type": "uint256"
        }
      ],
      "payable": false,
      "stateMutability": "nonpayable",
      "type": "function"
    },
    {
      "constant": false,
      "inputs": [
        {
          "name": "livestockID",
          "type": "bytes32"
        },
        {
          "name": "actor",
          "type": "uint8"
        }
      ],
      "name": "getLivestock",
      "outputs": [
        {
          "name": "",
          "type": "bool"
        },
        {
          "name": "",
          "type": "string"
        },
        {
          "name": "producerName",
          "type": "bytes32"
        },
        {
          "name": "produceTime",
          "type": "uint256"
        },
        {
          "name": "retailerNames",
          "type": "bytes32[]"
        },
        {
          "name": "retailerTimes",
          "type": "uint256[]"
        },
        {
          "name": "customerName",
          "type": "bytes32"
        },
        {
          "name": "sellTime",
          "type": "uint256"
        }
      ],
      "payable": false,
      "stateMutability": "nonpayable",
      "type": "function"
    }
  ],
  "bytecode": "0x608060405234801561001057600080fd5b506117fa806100206000396000f3fe608060405234801561001057600080fd5b50600436106100885760003560e01c806381aafa551161005b57806381aafa551461031f578063833125a1146103db578063b27285c014610546578063e7cd4a041461060257610088565b80630f8cac411461008d578063197281bc146101565780633ca1532d146102b45780637c8988bf14610315575b600080fd5b6100d0600480360360608110156100a357600080fd5b810190808035906020019092919080359060200190929190803560ff169060200190929190505050610646565b604051808315151515815260200180602001828103825283818151815260200191508051906020019080838360005b8381101561011a5780820151818401526020810190506100ff565b50505050905090810190601f1680156101475780820380516001836020036101000a031916815260200191505b50935050505060405180910390f35b6101826004803603602081101561016c57600080fd5b8101908080359060200190929190505050610973565b604051808915151515815260200180602001888152602001878152602001806020018060200186815260200185815260200184810384528b818151815260200191508051906020019080838360005b838110156101ec5780820151818401526020810190506101d1565b50505050905090810190601f1680156102195780820380516001836020036101000a031916815260200191505b50848103835288818151815260200191508051906020019060200280838360005b8381101561025557808201518184015260208101905061023a565b50505050905001848103825287818151815260200191508051906020019060200280838360005b8381101561029757808201518184015260208101905061027c565b505050509050019b50505050505050505050505060405180910390f35b6102f4600480360360608110156102ca57600080fd5b81019080803590602001909291908035906020019092919080359060200190929190505050610bce565b60405180831515151581526020018281526020019250505060405180910390f35b61031d610d4e565b005b6103556004803603604081101561033557600080fd5b810190808035906020019092919080359060200190929190505050610e0b565b604051808315151515815260200180602001828103825283818151815260200191508051906020019080838360005b8381101561039f578082015181840152602081019050610384565b50505050905090810190601f1680156103cc5780820380516001836020036101000a031916815260200191505b50935050505060405180910390f35b610414600480360360408110156103f157600080fd5b8101908080359060200190929190803560ff169060200190929190505050611004565b604051808915151515815260200180602001888152602001878152602001806020018060200186815260200185815260200184810384528b818151815260200191508051906020019080838360005b8381101561047e578082015181840152602081019050610463565b50505050905090810190601f1680156104ab5780820380516001836020036101000a031916815260200191505b50848103835288818151815260200191508051906020019060200280838360005b838110156104e75780820151818401526020810190506104cc565b50505050905001848103825287818151815260200191508051906020019060200280838360005b8381101561052957808201518184015260208101905061050e565b505050509050019b50505050505050505050505060405180910390f35b61057c6004803603604081101561055c57600080fd5b810190808035906020019092919080359060200190929190505050611661565b604051808315151515815260200180602001828103825283818151815260200191508051906020019080838360005b838110156105c65780820151818401526020810190506105ab565b50505050905090810190601f1680156105f35780820380516001836020036101000a031916815260200191505b50935050505060405180910390f35b6106446004803603602081101561061857600080fd5b81019080803573ffffffffffffffffffffffffffffffffffffffff16906020019092919050505061171b565b005b60006060610652611776565b6000600381111561065f57fe5b84600381111561066b57fe5b1415610702576000803373ffffffffffffffffffffffffffffffffffffffff1673ffffffffffffffffffffffffffffffffffffffff16815260200190815260200160002060405180606001604052908160008201548152602001600182015481526020016002820160009054906101000a900460ff1660038111156106ec57fe5b60038111156106f757fe5b8152505090506108a7565b6002600381111561070f57fe5b84600381111561071b57fe5b14156107b357600260003373ffffffffffffffffffffffffffffffffffffffff1673ffffffffffffffffffffffffffffffffffffffff16815260200190815260200160002060405180606001604052908160008201548152602001600182015481526020016002820160009054906101000a900460ff16600381111561079d57fe5b60038111156107a857fe5b8152505090506108a6565b6003808111156107bf57fe5b8460038111156107cb57fe5b141561086357600360003373ffffffffffffffffffffffffffffffffffffffff1673ffffffffffffffffffffffffffffffffffffffff16815260200190815260200160002060405180606001604052908160008201548152602001600182015481526020016002820160009054906101000a900460ff16600381111561084d57fe5b600381111561085857fe5b8152505090506108a5565b60006040518060400160405280601781526020017f746865206163746f72206973206e6f742062656c6f6e67000000000000000000815250925092505061096b565b5b5b6000801b8160000151146108f75760006040518060400160405280601981526020017f746869732049442068617320626565206f636375706965642100000000000000815250925092505061096b565b8581600001818152505084816020018181525050838160400190600381111561091c57fe5b9081600381111561092957fe5b8152505060016040518060400160405280600881526020017f537563636573732100000000000000000000000000000000000000000000000081525092509250505b935093915050565b600060606000806060806000806000600460008b81526020019081526020016000209050600560003373ffffffffffffffffffffffffffffffffffffffff1673ffffffffffffffffffffffffffffffffffffffff16815260200190815260200160002060009054906101000a900460ff16610a46576000878787878786600801546040518060400160405280600981526020017f6e6f2061636365737300000000000000000000000000000000000000000000008152509594939291909850985098509850985098509850985050610bc3565b6000801b81600001541415610ab3576000878787878786600801546040518060400160405280601e81526020017f546865206c69766573746f636b494420646f6573206e6f7420657869737400008152509594939291909850985098509850985098509850985050610bc3565b6001816003015482600201548360060184600401856009015486600801546040518060400160405280600781526020017f537563636573730000000000000000000000000000000000000000000000000081525095949392919083805480602002602001604051908101604052809291908181526020018280548015610b5857602002820191906000526020600020905b815481526020019060010190808311610b44575b5050505050935082805480602002602001604051908101604052809291908181526020018280548015610baa57602002820191906000526020600020905b815481526020019060010190808311610b96575b5050505050925098509850985098509850985098509850505b919395975091939597565b60008060006004600087815260200190815260200160002090506000801b816000015414610c235760007f546865206c69766573746f636b494420616c72656164792065786973742100009250925050610d46565b610c2b611776565b6000803373ffffffffffffffffffffffffffffffffffffffff1673ffffffffffffffffffffffffffffffffffffffff16815260200190815260200160002060405180606001604052908160008201548152602001600182015481526020016002820160009054906101000a900460ff166003811115610ca657fe5b6003811115610cb157fe5b8152505090506000801b81600001511415610cf45760007f5468652070726f647563657220646f6573206e6f742065786973742100000000935093505050610d46565b8682600001819055508582600101819055508482600201819055508060200151826003018190555060017f537563636573732c2070726f647563652061206e65772070726f6475637400009350935050505b935093915050565b33600660006101000a81548173ffffffffffffffffffffffffffffffffffffffff021916908373ffffffffffffffffffffffffffffffffffffffff160217905550600160056000600660009054906101000a900473ffffffffffffffffffffffffffffffffffffffff1673ffffffffffffffffffffffffffffffffffffffff1673ffffffffffffffffffffffffffffffffffffffff16815260200190815260200160002060006101000a81548160ff021916908315150217905550565b6000606060006004600086815260200190815260200160002090506000801b81600001541415610e775760006040518060400160405280601f81526020017f546865206c69766573746f636b494420646f6573206e6f7420657869737421008152509250925050610ffd565b610e7f611776565b600260003373ffffffffffffffffffffffffffffffffffffffff1673ffffffffffffffffffffffffffffffffffffffff16815260200190815260200160002060405180606001604052908160008201548152602001600182015481526020016002820160009054906101000a900460ff166003811115610efb57fe5b6003811115610f0657fe5b8152505090506000801b81600001511415610f5e5760006040518060400160405280601b81526020017f5468652072657461696c657220646f6573206e6f742065786973740000000000815250935093505050610ffd565b81600401859080600181540180825580915050906001820390600052602060002001600090919290919091505550816006018160200151908060018154018082558091505090600182039060005260206000200160009091929091909150555060016040518060400160405280600781526020017f53756363657373000000000000000000000000000000000000000000000000008152509350935050505b9250929050565b600060606000806060806000806000600460008c815260200190815260200160002090506000801b816000015414156110915760008787878787876040518060400160405280601e81526020017f546865206c69766573746f636b494420646f6573206e6f7420657869737400008152509594939291909850985098509850985098509850985050611654565b611099611776565b600060038111156110a657fe5b8b60038111156110b257fe5b1415611149576000803373ffffffffffffffffffffffffffffffffffffffff1673ffffffffffffffffffffffffffffffffffffffff16815260200190815260200160002060405180606001604052908160008201548152602001600182015481526020016002820160009054906101000a900460ff16600381111561113357fe5b600381111561113e57fe5b815250509050611307565b6002600381111561115657fe5b8b600381111561116257fe5b14156111fa57600260003373ffffffffffffffffffffffffffffffffffffffff1673ffffffffffffffffffffffffffffffffffffffff16815260200190815260200160002060405180606001604052908160008201548152602001600182015481526020016002820160009054906101000a900460ff1660038111156111e457fe5b60038111156111ef57fe5b815250509050611306565b60038081111561120657fe5b8b600381111561121257fe5b14156112aa57600360003373ffffffffffffffffffffffffffffffffffffffff1673ffffffffffffffffffffffffffffffffffffffff16815260200190815260200160002060405180606001604052908160008201548152602001600182015481526020016002820160009054906101000a900460ff16600381111561129457fe5b600381111561129f57fe5b815250509050611305565b60008888888888886040518060400160405280601981526020017f746865206163746f7220646f6573206e6f742062656c6f6e6700000000000000815250959493929190995099509950995099509950995099505050611654565b5b5b81600a0160009054906101000a900460ff16156114c8573373ffffffffffffffffffffffffffffffffffffffff1682600a0160019054906101000a900473ffffffffffffffffffffffffffffffffffffffff1673ffffffffffffffffffffffffffffffffffffffff16146113b35760008888888888886040518060600160405280602681526020016117a960269139959493929190995099509950995099509950995099505050611654565b6000826003015483600201548460060185600701866009015487600801546040518060400160405280601081526020017f68617320616c72656164792062696e64000000000000000000000000000000008152509594939291908380548060200260200160405190810160405280929190818152602001828054801561145857602002820191906000526020600020905b815481526020019060010190808311611444575b50505050509350828054806020026020016040519081016040528092919081815260200182805480156114aa57602002820191906000526020600020905b815481526020019060010190808311611496575b50505050509250995099509950995099509950995099505050611654565b60008260080154111561154357600182600a0160006101000a81548160ff0219169083151502179055503382600a0160016101000a81548173ffffffffffffffffffffffffffffffffffffffff021916908373ffffffffffffffffffffffffffffffffffffffff160217905550806020015182600901819055505b6001826003015483600201548460060185600701866009015487600801546040518060400160405280600681526020017f5375636573730000000000000000000000000000000000000000000000000000815250959493929190838054806020026020016040519081016040528092919081815260200182805480156115e857602002820191906000526020600020905b8154815260200190600101908083116115d4575b505050505093508280548060200260200160405190810160405280929190818152602001828054801561163a57602002820191906000526020600020905b815481526020019060010190808311611626575b505050505092509950995099509950995099509950995050505b9295985092959890939650565b6000606060006004600086815260200190815260200160002090506000801b816000015414156116cd5760006040518060400160405280601c81526020017f546865206c69766573746f636b494420646f6e277420737869737421000000008152509250925050611714565b83816008018190555060016040518060400160405280601281526020017f5375636365737366756c6c7920736f6c6421000000000000000000000000000081525092509250505b9250929050565b6001600560008373ffffffffffffffffffffffffffffffffffffffff1673ffffffffffffffffffffffffffffffffffffffff16815260200190815260200160002060006101000a81548160ff02191690831515021790555050565b60405180606001604052806000801916815260200160008019168152602001600060038111156117a257fe5b8152509056fe7761726e696e672c2074686973206c69766573746f636b20686173206265656e20626f756e64a165627a7a723058209040050e3ecc5918fda73f6013a0b6e111b55ffc7ef120243596ed4ed6ed24e80029",
  "source": "pragma solidity ^0.5.8;\n\ncontract SupplyChain {\n  // Different levels of actors in supply chain\n  enum Actor{Producer, Tester, Retailer, Customer}\n  // Samples of some livestocks as products\n  enum Livestocktype{Cattle, Chicken, Pig, Sheep}\n  // Create a user structure\n  struct User {\n    bytes32 ID;\n    bytes32 name;\n    Actor actor;\n  }\n  // Create a livestock structure\n  struct Livestock {\n    bytes32 livestockID;\n    bytes32 livestockName;\n    uint produceTime;\n    bytes32 producerName;\n    uint[] timestamps;\n    bytes32 retailerName;\n    bytes32[] retailerNames;\n    uint[] retailerTimes;\n    uint sellTime;\n    bytes32 customerName;\n    bool isBinding;\n    address owner;\n  }\n\n  // Different mappings (key, value) pairs\n  mapping(address => User) producerMap;\n  mapping(address => User) testerMap;\n  mapping(address => User) retailerMap;\n  mapping(address => User) customerMap;\n  mapping(bytes32 => Livestock) livestockMap;\n  mapping(address => bool) whiteList;\n  address owner;\n\n  function Supply_Chain() public {\n    owner = msg.sender;\n    whiteList[owner] = true;\n  }\n\n  // Add an address to the whitelist\n  function addWhiteList(address addr) public {\n    whiteList[addr] = true;\n  }\n\n  function newUser(bytes32 ID, bytes32 name, Actor actor) public returns(bool Boolean, string memory String) {\n    User memory user;\n\n    if (actor == Actor.Producer) {\n      user = producerMap[msg.sender];\n    } else if (actor == Actor.Retailer) {\n      user = retailerMap[msg.sender];\n    } else if (actor == Actor.Customer) {\n      user = customerMap[msg.sender];\n    } else {\n      return (false, \"the actor is not belong\");\n    }\n\n    if (user.ID != 0x0) {\n      return (false, \"this ID has bee occupied!\");\n    }\n    user.ID = ID;\n    user.name = name;\n    user.actor = actor;\n    return (true, \"Success!\");\n  }\n\n  // this interface just for producer\n  function newProduct (bytes32 livestockID, bytes32 livestockName, uint timestamp) public returns(bool, bytes32) {\n    Livestock storage livestock = livestockMap[livestockID];\n    if (livestock.livestockID != 0x0) {\n      return (false, \"The livestockID already exist!\");\n    }\n    User memory user = producerMap[msg.sender];\n    if (user.ID == 0x0) {\n      return (false, \"The producer does not exist!\");\n    }\n    livestock.livestockID = livestockID;\n    livestock.livestockName = livestockName;\n    livestock.produceTime = timestamp;\n    livestock.producerName = user.name;\n    return (true, \"Success, produce a new product\");\n  }\n\n  // this interface just for retailer\n  function retailerInnerTransfer (bytes32 livestockID, uint timestamp) public returns(bool Boolean, string memory String) {\n    Livestock storage livestock = livestockMap[livestockID];\n    if (livestock.livestockID == 0x0) {\n      return (false, \"The livestockID does not exist!\");\n    }\n    User memory user = retailerMap[msg.sender];\n    if (user.ID == 0x0) {\n      return (false, \"The retailer does not exist\");\n    }\n    livestock.timestamps.push(timestamp);\n    livestock.retailerNames.push(user.name);\n    return (true, \"Success\");\n  }\n\n  function fromRetailerToCustomer (bytes32 livestockID, uint timestamp) public returns(bool Boolean, string memory String) {\n    Livestock storage livestock = livestockMap[livestockID];\n    if (livestock.livestockID == 0x0) {\n      return (false, \"The livestockID don't sxist!\");\n    }\n    livestock.sellTime = timestamp;\n    return  (true, \"Successfully sold!\");\n  }\n\n  function getLivestockRecordsBywhiteList (bytes32 livestockID) public returns (\n    bool, string memory, bytes32 producerName, uint produceTime, bytes32[] memory retailerNames,\n    uint[] memory retailerTimes, bytes32 customerName, uint sellTime\n  ) {\n    Livestock storage livestock = livestockMap[livestockID];\n    if (!whiteList[msg.sender]) {\n      return (false, \"no access\", producerName, produceTime, retailerNames, retailerTimes, customerName, livestock.sellTime);\n    }\n    if (livestock.livestockID == 0x0) {\n      return (false, \"The livestockID does not exist\", producerName, produceTime, retailerNames, retailerTimes, customerName, livestock.sellTime);\n    }\n    return (true, \"Success\", livestock.producerName, livestock.produceTime, livestock.retailerNames, livestock.timestamps, livestock.customerName, livestock.sellTime);\n  }\n\n  function getLivestock (bytes32 livestockID, Actor actor) public returns (\n    bool, string memory, bytes32 producerName, uint produceTime, bytes32[] memory retailerNames,\n    uint[] memory retailerTimes, bytes32 customerName, uint sellTime\n  ){\n    Livestock storage livestock = livestockMap[livestockID];\n    if (livestock.livestockID == 0x0) {\n      return (false, \"The livestockID does not exist\", producerName, produceTime, retailerNames, retailerTimes, customerName, sellTime);\n    }\n    User memory user;\n    if (actor == Actor.Producer) {\n      user = producerMap[msg.sender];\n    } else if (actor == Actor.Retailer) {\n      user = retailerMap[msg.sender];\n    } else if (actor == Actor.Customer) {\n      user = customerMap[msg.sender];\n    } else {\n      return (false, \"the actor does not belong\", producerName, produceTime, retailerNames, retailerTimes, customerName, sellTime);\n    }\n    if (livestock.isBinding) {\n      if (livestock.owner != msg.sender) {\n        return (false, \"warning, this livestock has been bound\", producerName, produceTime, retailerNames, retailerTimes, customerName, sellTime);\n      } else {\n        return (false, \"has already bind\", livestock.producerName, livestock.produceTime, livestock.retailerNames, livestock.retailerTimes, livestock.customerName, livestock.sellTime);\n      }\n    }\n    if (livestock.sellTime > 0) {\n      livestock.isBinding = true;\n      livestock.owner = msg.sender;\n      livestock.customerName = user.name;\n    }\n    return (true, \"Sucess\", livestock.producerName, livestock.produceTime, livestock.retailerNames, livestock.retailerTimes, livestock.customerName, livestock.sellTime);\n  }\n\n}",
  "sourcePath": "/Users/guozhitang/Projects/Blockchain/Livestock-Disease-Monitor-System/contracts/SupplyChain.sol",
  "compiler": {
    "name": "solc",
    "version": "0.5.8+commit.23d335f2.Emscripten.clang"
  },
  "schemaVersion": "3.0.16",
  "updatedAt": "2019-11-25T23:32:00.972Z",
  "devdoc": {
    "methods": {}
  },
  "userdoc": {
    "methods": {}
  }
}